S00A000042332E73726563A5
S113000045C0000060C000005EC000005CC000008D
S11300105AC0000058C0000056C0000054C0000080
S113002052C0000050C000005EC000004CC0000080
S11300304AC0000048C0000046C0000044C00000A0
S113004042C0000040C000003EC000003CC00000B0
S11300503AC0000038C0000036C0000034C00000C0
S113006032C0000030C000002EC000002CC00000D0
S11300702AC0000028C0000026C0000024C00000E0
S113008022C0000020C000001EC0000011241FBEBA
S1130090CFEFD0E1DEBFCDBF11E0A0E0B1E0EEE5EF
S11300A0F1E000E00BBF02C007900D92A230B1074F
S11300B0D9F721E0A2E0B1E001C01D92A430B2075B
S11300C0E1F739D04AC09CCF20E030E008C0EFEC23
S11300D0F7E03197F1F700C000002F5F3F4F28177A
S11300E03907ACF308951F920F920FB60F921124A3
S11300F08F939F93809100019091010184BD809121
S113010002019091030101969093030180930201EF
S11301109F918F910F900FBE0F901F901895809113
S113012000019091010184BD87B7806487BF7894F2
S113013087E085BD089581B3807881BB8FEF8ABB4A
S113014087BBEDDF84B58BBB8091020190910301E5
S111015088BB8AE090E0B8DFF5CFF894FFCFCB
S105015EF6FFA6
S9030000FC
