S01700007465737420756C747261736F6E69632E73726563E9
S113000045C000004BC0000049C0000047C00000CC
S113001045C0000043C0000041C000003FC00000D4
S11300203DC000003BC0000039C0000037C00000E4
S113003035C0000033C0000031C000002FC00000F4
S11300402DC000002BC0000029C0000027C0000004
S113005025C0000023C0000021C000001FC0000014
S11300601DC000001BC0000019C0000017C0000024
S113007015C0000013C0000011C000000FC0000034
S11300800DC000000BC0000009C0000011241FBEF9
S1130090CFEFD0E1DEBFCDBF79D0D2C1B1CF20E068
S11300A030E008C0EFECF7E03197F1F700C0000052
S11300B02F5F3F4F28173907ACF308954F925F9293
S11300C06F927F928F929F92AF92BF92CF92DF9264
S11300D0EF92FF92CF93DF9300D000D0CDB7DEB77D
S11300E04B015C0160E070E080E89FE35CD020E0BD
S11300F030E04AE754E441D16B017C019B01AC013F
S1130100C501B40150D0B7D02B013C0120E030E050
S113011040E05FE3C701B60130D169837A838B8302
S11301209C8384B3806884BBC12CD12C760116C017
S113013069817A818B819C819ED04B015C01CB01CA
S1130140AEDF85B3806885BBC401A9DF85B38F7733
S113015085BB8FEFC81AD80AE80AF80AC414D50474
S1130160E604F7042CF30F900F900F900F90DF919B
S1130170CF91FF90EF90DF90CF90BF90AF909F9082
S11301808F907F906F905F904F90089520E030E0C3
S11301904AE753E460E070E08AEF93E48FDF88EC91
S11301A090E07DDFF3CF0CD0AEC0A6D040F09DD060
S11301B030F021F45F3F19F08FC05111D8C092C0C4
S11301C0B3D098F39923C9F35523B1F3951B550B79
S11301D0BB27AA2762177307840738F09F5F5F4F16
S11301E0220F331F441FAA1FA9F333D00E2E3AF057
S11301F0E0E830D091505040E695001CCAF729D071
S1130200FE2F27D0660F771F881FBB1F26173707BF
S11302104807AB07B0E809F0BB0B802DBF01FF27EF
S113022093585F4F2AF09E3F510568F055C09FC018
S11302305F3FECF3983EDCF3869577956795B79529
S1130240F7959F5FC9F7880F911D9695879597F944
S11302500895E1E0660F771F881FBB1F62177307BD
S11302608407BA0720F0621B730B840BBA0BEE1FD2
S113027088F7E095089504D06894B11178C0089582
S11302805BD088F09F5790F0B92F9927B751A0F011
S1130290D1F0660F771F881F991F1AF0BA95C9F716
S11302A012C0B13081F062D0B1E008955FC0672F11
S11302B0782F8827B85F39F0B93FCCF386957795C6
S11302C06795B395D9F73EF49095809570956195AF
S11302D07F4F8F4F9F4F089597F99F6780E870E095
S11302E060E008959FEF80EC089500240A941616A8
S11302F0170618060906089500240A941216130610
S1130300140605060895092E0394000C11F488239D
S113031052F0BB0F40F4BF2B11F460FF04C06F5FB9
S11303207F4F8F4F9F4F089557FD9058440F551F8F
S113033059F05F3F71F04795880F97FB991F61F063
S11303409F3F79F087950895121613061406551FDA
S1130350F2CF4695F1DF08C0161617061806991F46
S1130360F1CF86957105610508940895E894BB273B
S113037066277727CB0197F908950BD0C4CFB5DF53
S113038028F0BADF18F0952309F0A6CFABCF1124DB
S1130390EECFCADFA0F3959FD1F3950F50E0551F20
S11303A0629FF001729FBB27F00DB11D639FAA27C6
S11303B0F00DB11DAA1F649F6627B00DA11D661F15
S11303C0829F2227B00DA11D621F739FB00DA11D36
S11303D0621F839FA00D611D221F749F3327A00DF0
S11303E0611D231F849F600D211D822F762F6A2F8C
S11303F011249F5750408AF0E1F088234AF0EE0F11
S1130400FF1FBB1F661F771F881F91505040A9F71D
S11304109E3F510570F060CFAACF5F3FECF3983E4A
S1130420DCF3869577956795B795F795E7959F5F84
S1130430C1F7FE2B880F911D9695879597F908951E
S1070440F894FFCF5A
S9030000FC
