S014000065696E646F706472616368742E737265631B
S113000045C000002BC10000F8C000005CC0000027
S11300105AC0000058C0000056C0000054C0000080
S113002052C0000050C000004EC000004CC0000090
S11300304AC0000048C0000046C0000044C00000A0
S113004042C0000040C000003EC000003CC00000B0
S11300503AC0000038C0000036C0000034C00000C0
S113006032C0000030C000002EC000002CC00000D0
S11300702AC0000028C0000026C0000024C00000E0
S113008022C0000020C000001EC0000011241FBEBA
S1130090CFEFD0E1DEBFCDBF11E0A0E0B1E0E2E2FE
S11300A0F6E000E00BBF02C007900D92A230B1074A
S11300B0D9F721E0A2E0B1E001C01D92A430B2075B
S11300C0E1F7FDD0ACC29CCF20E030E008C0EFECFB
S11300D0F7E03197F1F700C000002F5F3F4F28177A
S11300E03907ACF3089581E090E090930101809387
S11300F00001109203011092020184E082BB9AE194
S11301009A95F1F700C082BB80910201909103019E
S11301108C599F4F909303018093020180910001B9
S113012090910101892B81F708954F925F926F920C
S11301307F928F929F92AF92BF92CF92DF92EF9273
S1130140FF92CF93DF9300D000D0CDB7DEB74B0141
S11301505C0160E070E080E89FE3D7D020E030E00D
S11301604AE754E4F9D16B017C019B01AC01C50160
S1130170B401CBD032D12B013C0120E030E040E08F
S11301805FE3C701B601E8D169837A838B839C83DB
S113019084B3806884BBC12CD12C760116C06981DC
S11301A07A818B819C8119D14B015C01CB018CDF5D
S11301B085B3806885BBC40187DF85B38F7785BB32
S11301C08FEFC81AD80AE80AF80AC414D504E6045A
S11301D0F7042CF30F900F900F900F90DF91CF91B5
S11301E0FF90EF90DF90CF90BF90AF909F908F9053
S11301F07F906F905F904F9008951F920F920FB66B
S11302000F9211240BB60F922F933F934F935F934A
S11302106F937F938F939F93AF93BF93EF93FF93CA
S113022020E030E048EC52E4CA01B9017EDF1092CC
S1130230010110920001FF91EF91BF91AF919F9145
S11302408F917F916F915F914F913F912F910F907B
S11302500BBE0F900FBE0F901F9018951F920F9218
S11302600FB60F9211240BB60F922F933F934F9317
S11302705F936F937F938F939F93AF93BF93EF930A
S1130280FF9320E030E048EC52E4CA01B9014DDFAD
S11302901092010110920001FF91EF91BF91AF9173
S11302A09F918F917F916F915F914F913F912F918A
S11302B00F900BBE0F900FBE0F901F90189584E601
S11302C081BBEAE6F0E080818B60808389B782603D
S11302D089BF789420E030E04AE753E460E070E0BE
S11302E088E493E422DFFFDE609102017091030150
S11302F0072E000C880B990BA3D09B01AC0160E086
S113030070E08AEF93E411DFEECF0CD0EBC0E3D0C2
S113031040F0DAD030F021F45F3F19F0CCC0511135
S113032015C1CFC0F0D098F39923C9F35523B1F385
S1130330951B550BBB27AA2762177307840738F050
S11303409F5F5F4F220F331F441FAA1FA9F333D0AF
S11303500E2E3AF0E0E830D091505040E695001C63
S1130360CAF729D0FE2F27D0660F771F881FBB1F1F
S1130370261737074807AB07B0E809F0BB0B802DF9
S1130380BF01FF2793585F4F2AF09E3F510568F045
S113039092C0DCC05F3FECF3983EDCF38695779522
S11303A06795B795F7959F5FC9F7880F911D969547
S11303B0879597F90895E1E0660F771F881FBB1FA3
S11303C0621773078407BA0720F0621B730B840B50
S11303D0BA0BEE1F88F7E095089504D06894B11124
S11303E0B5C0089598D088F09F5790F0B92F9927F9
S11303F0B751A0F0D1F0660F771F881F991F1AF02C
S1130400BA95C9F712C0B13081F09FD0B1E0089518
S11304109CC0672F782F8827B85F39F0B93FCCF399
S1130420869577956795B395D9F73EF49095809521
S1130430709561957F4F8F4F9F4F0895E89409C041
S113044097FB3EF490958095709561957F4F8F4F03
S11304509F4F9923A9F0F92F96E9BB279395F69519
S1130460879577956795B795F111F8CFFAF4BB0F97
S113047011F460FF1BC06F5F7F4F8F4F9F4F16C0FB
S1130480882311F096E911C0772321F09EE8872F85
S1130490762F05C0662371F096E8862F70E060E041
S11304A02AF09A95660F771F881FDAF7880F9695BA
S11304B0879597F9089597F99F6780E870E060E061
S11304C008959FEF80EC089500240A9416161706E9
S11304D018060906089500240A9412161306140631
S11304E005060895092E0394000C11F4882352F094
S11304F0BB0F40F4BF2B11F460FF04C06F5F7F4F4C
S11305008F4F9F4F089557FD9058440F551F59F032
S11305105F3F71F04795880F97FB991F61F09F3FEC
S113052079F087950895121613061406551FF2CF15
S11305304695F1DF08C0161617061806991FF1CF65
S113054086957105610508940895E894BB2766278C
S11305507727CB0197F908950BD0C4CFB5DF28F0E6
S1130560BADF18F0952309F0A6CFABCF1124EECF54
S1130570CADFA0F3959FD1F3950F50E0551F629FFA
S1130580F001729FBB27F00DB11D639FAA27F00DE8
S1130590B11DAA1F649F6627B00DA11D661F829F0F
S11305A02227B00DA11D621F739FB00DA11D621FF4
S11305B0839FA00D611D221F749F3327A00D611D11
S11305C0231F849F600D211D822F762F6A2F1124F3
S11305D09F5750408AF0E1F088234AF0EE0FFF1F46
S11305E0BB1F661F771F881F91505040A9F79E3F7D
S11305F0510570F060CFAACF5F3FECF3983EDCF377
S1130600869577956795B795F795E7959F5FC1F7B9
S1130610FE2B880F911D9695879597F90895F89468
S1050620FFCF06
S10506220100D1
S9030000FC
